:100000000C94AC000C94D4000C94D4000C94D40048
:100010000C94D4000C94D4000C94D4000C94D40010
:100020000C94D4000C94D4000C94D4000C94D40000
:100030000C94D4000C94D4000C94D4000C94D400F0
:100040000C94D4000C94D4000C94D4000C94D400E0
:100050000C94D4006E616E00696E660000407A10E8
:10006000F35A00A0724E18090010A5D4E80000E869
:100070007648170000E40B54020000CA9A3B0000C7
:1000800000E1F505000080969800000040420F0056
:100090000000A08601000000102700000000E80317
:1000A000000000006400000000000A0000000000E2
:1000B0000100000000002C76D888DC674F0823DFA1
:1000C000C1DFAE59E1B1B796E5E3E453C63AE65174
:1000D000997696E8E6C28426EB898C9B62ED407C9B
:1000E0006FFCEFBC9C9F40F2BAA56FA5F490055A37
:1000F0002AF75C936B6CF9676DC11BFCE0E40D475C
:10010000FEF520E6B500D0ED902E0300943577057E
:100110000080841E080000204E0A000000C80C3336
:100120003333330F986E12831141EF8D2114893BC5
:10013000E65516CFFEE6DB18D1844B381BF77C1D45
:10014000901DA4BBE424203284725E228100C9F198
:1001500024ECA1E53D275E0611241FBECFE5D8E0C3
:10016000DEBFCDBF10E0A0E6B0E0E6E5F4E102C0FE
:1001700005900D92AA39B107D9F721E0AAE9B0E0BC
:1001800001C01D92AD3AB207E1F710E0CCEAD0E031
:1001900004C02197FE010E94DE06CB3AD107C9F7C1
:1001A0000E945C040C94290A0C940000A3E1B0E0C6
:1001B000ECEDF0E00C94A7066C014B012A01FC0168
:1001C00017821682838181FF43C3AE014F5F5F4F69
:1001D0003A01F6019381F40193FD859193FF81919A
:1001E0004F01882309F430C3853239F493FD85919A
:1001F00093FF81914F01853239F4B60190E00E945E
:10020000700952012501E5CF10E0F12C20E02032E9
:10021000A0F48B3269F030F4803259F0833269F403
:1002200020612CC08D3239F0803339F4216026C032
:100230002260246023C0286021C027FD27C030ED44
:10024000380F3A3078F426FF06C0FAE01F9F300DD1
:100250001124132F13C04AE0F49E300D1124F32E05
:1002600020620CC08E3221F426FDEEC2206406C04E
:100270008C3611F4206802C0883641F4F40193FDF5
:10028000859193FF81914F018111C1CF9BEB980F15
:10029000933018F42061805E06C09BE9980F93307C
:1002A00008F071C12F7E26FF16E02F73322E85369F
:1002B00019F42064322E08C0863621F4F22FF0683B
:1002C0003F2E02C01111115037FE07C01C3350F4ED
:1002D000EE24E394E10E27E00BC0183038F027E05D
:1002E00017E005C027E04CE3E42E02C0212FE12CEB
:1002F000520144E0A40EB11CF2016081718182813F
:1003000093810E2DA3010E9482082C01098100FF18
:1003100002C003FF07C031FC08C032FE09C030E252
:10032000232E07C02DE2222E04C09BE2292E01C0FD
:10033000212C802F8C7019F0211068C2A8C237FEC2
:100340000FC0E40C04FF04C08A81813309F4EA94ED
:100350001E1474F5F8E0FE1578F588E0E82E2CC040
:1003600036FC2AC0812F90E0841595059CF02CEF77
:1003700042162FEF520674F0432D4068342E0AC007
:10038000E2E0F0E0EC0FFD1FE10FF11D8081803312
:1003900019F411501111F4CF37FE0EC0EE24E3947E
:1003A000E10E812F90E0481659062CF4141904C070
:1003B000EE24E39401C010E037FE06C014141504C7
:1003C00034F4C201019605C085E090E002C081E0EE
:1003D00090E021100196112331F0212F30E02F5FA2
:1003E0003F4F820F931F2F2D30E08217930714F495
:1003F000F81A01C0F12C832D897049F4FF2039F0DF
:10040000B60180E290E00E947009FA94F7CF2220B2
:1004100029F0B601822D90E00E94700933FC09C0DA
:10042000FF2039F0B60180E390E00E947009FA9451
:10043000F7CF37FE5AC0942D852D57FE02C090E0AD
:1004400080E0292E382E20E030E0A2014E1951091B
:100450005D874C87A201421953095F874E87612F40
:1004600070E044275527461B570B598B488B5FEF8D
:100470002516350649F4B6018EE290E02A8B3B8BB7
:100480000E9470093B892A89421453046CF04C8500
:100490005D854215530544F4EE85FF85E20FF31F99
:1004A000E60DF71D818101C080E351E0251A310876
:1004B0002F5F3F4F48895989241635064CF0B60105
:1004C00090E02A8B3B8B0E9470092A893B89CFCF11
:1004D0002414350439F49A81963318F4953311F4C1
:1004E00004FF81E3B60190E04BC08A81813309F0BB
:1004F0000F7EB60190E00E947009111105C034FC16
:1005000018C085E690E017C0B6018EE290E00E9428
:10051000700982E0EE24E394E80EF301E80FF11D88
:100520008081B60190E00E94700911508E2D91F7E4
:10053000E6CF85E490E0B6010E94700957FC05C043
:100540004114510439F404FF05C0519441945108F9
:100550008DE201C08BE2B60190E00E94700980E359
:100560009AE0491651042CF08F5F5AE0451A510861
:10057000F7CFB60190E00E947009B601C201C096A3
:100580000E94700957C1833631F0833779F0833583
:1005900009F058C021C05201E2E0AE0EB11CF201D8
:1005A0008081898301E010E0230114C05201F2E050
:1005B000AF0EB11CF2014080518026FF03C0612FB5
:1005C00070E002C06FEF7FEFC2012A8B0E946509C5
:1005D0008C012A892F7715C05201F2E0AF0EB11CB1
:1005E000F2014080518026FF03C0612F70E002C0FD
:1005F0006FEF7FEFC2012A8B0E945A098C012A8972
:100600002068322E23FD1AC08F2D90E0081719079D
:10061000A8F4B60180E290E00E947009FA94F4CF49
:10062000F20137FC859137FE81912F01B60190E0F0
:100630000E947009F110FA94015011090115110579
:1006400079F7F8C0843611F0893659F5520127FF41
:1006500009C0F4E0AF0EB11CF201608171818281AA
:1006600093810AC0F2E0AF0EB11CF201608171818A
:10067000072E000C880B990B2F76322E97FF09C09E
:1006800090958095709561957F4F8F4F9F4F206813
:10069000322E2AE030E0A3010E94CB09E82EE618B2
:1006A0003FC0022F853721F40F7E2AE030E01DC0C5
:1006B000097F8F3691F018F4883559F0C5C080371E
:1006C00019F0883711F0C0C0006104FF09C0046050
:1006D00007C024FF08C0066006C028E030E005C05F
:1006E00020E130E002C020E132E0520107FF09C002
:1006F000F4E0AF0EB11CF2016081718182819381BF
:1007000008C0F2E0AF0EB11CF2016081718180E09F
:1007100090E0A3010E94CB09E82EE6180F77302E57
:1007200036FE0BC0332D3E7FE11650F434FE0AC076
:1007300032FC08C0332D3E7E05C00E2D332D03C084
:100740000E2D01C0012F34FF0CC0FE01EE0DF11D76
:100750008081803311F4397E08C032FF05C00E5FFE
:1007600004C0832F867809F00F5F33FD13C030FF7C
:1007700006C01E2D0F1518F41F0D101B0F2D0F1581
:1007800068F4B60180E290E03B8B0E9470090F5F35
:100790003B89F5CF0F1510F4F01A01C0F12C34FF8E
:1007A00012C0B60180E390E03B8B0E9470093B8948
:1007B00032FF17C031FD03C088E790E002C088E532
:1007C00090E0B6010CC0832F867859F031FF02C04B
:1007D0008BE201C080E237FD8DE2B60190E00E941D
:1007E0007009E11638F4B60180E390E00E947009C8
:1007F0001150F7CFEA94F301EE0DF11D8081B6019F
:1008000090E00E947009E110F5CF14C0F4E0FF15EC
:1008100058F584E0F81A33FE1EC0211026C003FFED
:100820002AC004E510E0F32DF0713F2EF801849109
:10083000811124C0FF2009F4E5CCB60180E290E0EC
:100840000E947009FA94F6CFF6018681978126C03E
:100850008FEF9FEF23C0B60180E290E00E94700905
:10086000FA94F110F8CFD9CFF12CB601822D90E097
:100870000E947009D4CF08E510E0D5CF3110805226
:10088000B60190E00E9470090F5F1F4FCFCF23E0A9
:100890002F1510F483E0BECFF12CC1CF6396E2E1B7
:1008A0000C94C3068FEF87BB40E052EC61E070E030
:1008B0008AE990E00C94CC04CF93DF93CDB7DEB7F8
:1008C000CE56D1090FB6F894DEBF0FBECDBF0E9441
:1008D00052048AE990E00E94500600E010E07E0198
:1008E00085E6E80EF11C80E6A82E80E0B82ECE0149
:1008F00001966C01F70180E090E09801082E01C09C
:10090000220F0A94EAF727FD02C020E301C021E389
:10091000219301968930910581F71F930F931F93BF
:100920000F93FF92EF921F930F93BF92AF92DF92BC
:10093000CF920E94A809B6018AE990E00E9454066D
:100940000F5F1F4F0FB6F894DEBF0FBECDBF01156E
:1009500091E0190779F664E670E08AE990E00E9478
:10096000EA054CE359E76FEF7FEF8AE990E00E94D8
:10097000B60549EF5FE069E470E48AE990E00E941F
:10098000F00540E054E264EF70E08AE990E00E94F4
:10099000B6058FEF88BBFFCFCF93DF93EC019A01B1
:1009A000AB0184E0220F331F441F551F8A95D1F7F6
:1009B00060E074E284EF90E00E948506BA01A9012C
:1009C0004150510961097109E881F981BB27A72FBD
:1009D000962F852F8083EA81FB814083F894EE81F6
:1009E000FF8188E98083E885F98586E080837894B3
:1009F000DF91CF910895FC01E058FF4F308121E055
:100A0000230F2F77DC01AF57BF4F4C91241749F0CC
:100A1000DC01A30FB11D6C932083329680818F5F20
:100A200080830895FC01EF57FF4F2081DC01A0581F
:100A3000BF4F3C91321771F0DC01A20FB11D3C9108
:100A40002F5F2F7720833196808181508083832F81
:100A500090E008958FEF9FEF08950F931F93CF932A
:100A6000DF93EC010A851B8581579F4F0E94120579
:100A7000F8018083EC81FD81808180648083FE01A8
:100A8000EF5EFE4F8081811105C0EE81FF81808184
:100A90008F7D8083DF91CF911F910F910895EF9209
:100AA000FF920F931F93CF93DF931F92CDB7DEB7C3
:100AB0007C01FC01EE5EFE4F81E0808387010F5ECA
:100AC0001E4FD8018C91811119C0D7011496ED9158
:100AD000FC911597808185FD22C010C00FB607FCE0
:100AE000FDCFD7011496ED91FC911597808185FF7C
:100AF000F5CFC70169830E942D056981F8018081C6
:100B00008F3761F3C70181579F4F0E94FB04D701C4
:100B10001696ED91FC911797808180620CC0D701E9
:100B20001A96ED91FC911B9760831496ED91FC91C0
:100B300015978081806480830F90DF91CF911F9102
:100B40000F91FF90EF9008950F931F93CF93DF9332
:100B50008C01EB016991662321F0C8010E944F05C9
:100B6000F9CFDF91CF911F910F910895EF92FF92EE
:100B70000F931F93CF93DF93CDB7DEB72A970FB6AE
:100B8000F894DEBF0FBECDBF7C017F936F935F9360
:100B90004F932DE830E03F932F938E010F5F1F4F4F
:100BA0001F930F930E94A809B801C7010E94A405D2
:100BB0000FB6F894DEBF0FBECDBF2A960FB6F894DD
:100BC000DEBF0FBECDBFDF91CF911F910F91FF9080
:100BD000EF900895AB01770F660B770B0C94B60579
:100BE0004F925F926F927F92AF92BF92CF92DF92BD
:100BF000EF92FF920F931F93CF93DF93CDB7DEB7A2
:100C00002A970FB6F894DEBF0FBECDBF5C012A0154
:100C10003B01CB01BA010E9451076B017C01072EF9
:100C2000000C880B990B0E9489079B01AC01C30142
:100C3000B2010E94E40620E030E048EC52E40E9459
:100C400015080E9451077F936F93DF92CF9221E99D
:100C500030E03F932F938E010F5F1F4F1F930F9331
:100C60000E94A809B801C5010E94A4050FB6F89416
:100C7000DEBF0FBECDBF2A960FB6F894DEBF0FBE03
:100C8000CDBFDF91CF911F910F91FF90EF90DF903B
:100C9000CF90BF90AF907F906F905F904F900895EE
:100CA00067E970E00C94A405CF93DF93EC010E94F8
:100CB000A405CE01DF91CF910C945006EAE9F0E053
:100CC00080E490E09183808329E230E033832283C3
:100CD0002BE230E0358324832AE230E03783268319
:100CE000918780878CE290E093878287109227011A
:100CF00010922601109228011092AA011092A901C7
:100D00001092AB011092AC010895A1E21A2EAA1B19
:100D1000BB1BFD010DC0AA1FBB1FEE1FFF1FA217AB
:100D2000B307E407F50720F0A21BB30BE40BF50BA8
:100D3000661F771F881F991F1A9469F76095709531
:100D4000809590959B01AC01BD01CF0108952F9234
:100D50003F924F925F926F927F928F929F92AF924B
:100D6000BF92CF92DF92EF92FF920F931F93CF9398
:100D7000DF93CDB7DEB7CA1BDB0B0FB6F894DEBF2F
:100D80000FBECDBF09942A88398848885F846E8455
:100D90007D848C849B84AA84B984C884DF80EE809F
:100DA000FD800C811B81AA81B981CE0FD11D0FB6A8
:100DB000F894DEBF0FBECDBFED010895EE0FFF1F0B
:100DC0000590F491E02D09945058BB27AA270E9462
:100DD000FC060C94DB070E94CD0738F00E94D40774
:100DE00020F039F49F3F19F426F40C94CA070EF44E
:100DF000E095E7FB0C94C407E92F0E94EC0758F339
:100E0000BA17620773078407950720F079F4A6F5EF
:100E10000C940E080EF4E0950B2EBA2FA02D0B01AA
:100E2000B90190010C01CA01A0011124FF27591B2F
:100E300099F0593F50F4503E68F11A16F040A22F35
:100E4000232F342F4427585FF3CF469537952795A6
:100E5000A795F0405395C9F77EF41F16BA0B620BA5
:100E6000730B840BBAF09150A1F0FF0FBB1F661FEC
:100E7000771F881FC2F70EC0BA0F621F731F841F2F
:100E800048F4879577956795B795F7959E3F08F055
:100E9000B0CF9395880F08F09927EE0F9795879517
:100EA00008950E9458076894B1110C940F08089592
:100EB0000E94F40788F09F5798F0B92F9927B751EF
:100EC000B0F0E1F0660F771F881F991F1AF0BA95EE
:100ED000C9F714C0B13091F00E940E08B1E0089536
:100EE0000C940E08672F782F8827B85F39F0B93F28
:100EF000CCF3869577956795B395D9F73EF49095A1
:100F00008095709561957F4F8F4F9F4F0895E8941E
:100F100009C097FB3EF490958095709561957F4F41
:100F20008F4F9F4F9923A9F0F92F96E9BB279395EF
:100F3000F695879577956795B795F111F8CFFAF4FF
:100F4000BB0F11F460FF1BC06F5F7F4F8F4F9F4F30
:100F500016C0882311F096E911C0772321F09EE88E
:100F6000872F762F05C0662371F096E8862F70E0F4
:100F700060E02AF09A95660F771F881FDAF7880FCE
:100F80009695879597F9089597F99F6780E870E09F
:100F900060E008959FEF80EC089500240A941616EF
:100FA000170618060906089500240A941216130657
:100FB000140605060895092E0394000C11F48823E5
:100FC00052F0BB0F40F4BF2B11F460FF04C06F5F01
:100FD0007F4F8F4F9F4F089557FD9058440F551FD7
:100FE00059F05F3F71F04795880F97FB991F61F0AB
:100FF0009F3F79F087950895121613061406551F22
:10100000F2CF4695F1DF08C0161617061806991F8D
:10101000F1CF86957105610508940895E894BB2782
:1010200066277727CB0197F908950E9428080C942A
:10103000DB070E94CD0738F00E94D40720F09523EB
:1010400011F00C94C4070C94CA0711240C940F08D7
:101050000E94EC0770F3959FC1F3950F50E0551F68
:10106000629FF001729FBB27F00DB11D639FAA27FD
:10107000F00DB11DAA1F649F6627B00DA11D661F4C
:10108000829F2227B00DA11D621F739FB00DA11D6D
:10109000621F839FA00D611D221F749F3327A00D27
:1010A000611D231F849F600D211D822F762F6A2FC3
:1010B00011249F5750409AF0F1F088234AF0EE0F28
:1010C000FF1FBB1F661F771F881F91505040A9F755
:1010D0009E3F510580F00C94C4070C940F085F3FAD
:1010E000E4F3983ED4F3869577956795B795F79591
:1010F000E7959F5FC1F7FE2B880F911D9695879509
:1011000097F90895283008F027E03327DA01990F7E
:10111000311D87FD916000966105710539F43260DB
:101120002E5F3D9330E32A95E1F708959F3F30F01D
:1011300080387105610509F03C5F3C5F3D9391305B
:1011400008F08068911DDF93CF931F930F93FF9258
:10115000EF92192F987F9695E92F96959695E90F1E
:10116000FF27EA54FF4F99273327EE24FF24A701D6
:10117000E70105900894079428F4360FE71EF81E3F
:10118000491F511D660F771F881F991F0694A1F7ED
:101190000590079428F4E70EF81E491F561FC11D3D
:1011A000770F881F991F661F0694A1F70590079473
:1011B00028F4F80E491F561FC71FD11D880F991F0D
:1011C000661F771F0694A1F70590079420F4490F36
:1011D000561FC71FD81F990F661F771F881F0694B9
:1011E000A9F784911095177041F0D695C79557953A
:1011F0004795F794E7941A95C1F7ECE5F0E0689409
:101200001590159135916591959105907FE27395B3
:10121000E118F10A430B560BC90BD009C0F7E10CDA
:10122000F11E431F561FC91FD01D7EF4703311F4E9
:101230008A95E6CFE894015030F0080F0AF40027B1
:10124000021708F4202F2395022F7A3328F079E330
:101250007D932A95E9F710C07D932A9589F6069427
:1012600097956795379517951794E118F10A430BF1
:10127000560BC90BD00998F023957E9173957A335C
:1012800008F070E37C932013B8F77E9170617D9332
:1012900030F0839571E37D9370E32A95E1F7112493
:1012A000EF90FF900F911F91CF91DF91992787FDCC
:1012B00090950895FC010590615070400110D8F799
:1012C000809590958E0F9F1F0895FC01615070408E
:1012D00001900110D8F7809590958E0F9F1F08956B
:1012E0000F931F93CF93DF93FB01238121FD03C055
:1012F0008FEF9FEF28C022FF16C0468157812481BF
:1013000035814217530744F4A081B1819D012F5FBD
:101310003F4F318320838C93268137812F5F3F4F4E
:101320003783268310C0EB01092F182F0084F18525
:10133000E02D0995892BE1F68E819F8101969F838F
:101340008E83812F902FDF91CF911F910F91089560
:10135000AEE0B0E0EEEAF9E00C94B5060D891E8926
:1013600086E08C831A8309838FEF9FE79E838D83AA
:10137000AE01475E5F4F6F89788DCE0101960E9466
:10138000D6002F813885F801E20FF31F10822E96C8
:10139000E4E00C94D106FA01AA27283051F120315B
:1013A00081F1E8946F936E7F6E5F7F4F8F4F9F4FF9
:1013B000AF4FB1E03ED0B4E03CD0670F781F891F3B
:1013C0009A1FA11D680F791F8A1F911DA11D6A0F09
:1013D000711D811D911DA11D20D009F468943F91BC
:1013E0002AE0269F11243019305D3193DEF6CF01BB
:1013F0000895462F4770405D4193B3E00FD0C9F781
:10140000F6CF462F4F70405D4A3318F0495D31FDED
:101410004052419302D0A9F7EACFB4E0A695979540
:10142000879577956795BA95C9F700976105710516
:1014300008959B01AC010A2E069457954795379560
:101440002795BA95C9F7620F731F841F951FA01DBA
:061450000895F894FFCF9F
:10145600434841523A20256320202042494E3A20F3
:10146600257320204445433A2025642020484558CA
:101476003A203078252E325800256C7500256C648C
:0A1486000025642E2564000D0A0005
:00000001FF
